{
  "contractName": "Test",
  "abi": [
    {
      "inputs": [
        {
          "internalType": "uint256",
          "name": "ax",
          "type": "uint256"
        },
        {
          "internalType": "uint256",
          "name": "ay",
          "type": "uint256"
        },
        {
          "internalType": "uint256",
          "name": "bx",
          "type": "uint256"
        },
        {
          "internalType": "uint256",
          "name": "by",
          "type": "uint256"
        }
      ],
      "name": "callBn256Add",
      "outputs": [
        {
          "internalType": "bytes32[2]",
          "name": "result",
          "type": "bytes32[2]"
        }
      ],
      "stateMutability": "view",
      "type": "function",
      "constant": true
    }
  ],
  "bytecode": "0x608060405234801561001057600080fd5b506103f0806100206000396000f3fe608060405234801561001057600080fd5b506004361061002b5760003560e01c8063be31054014610030575b600080fd5b61004a600480360381019061004591906101d7565b610060565b60405161005791906102f3565b60405180910390f35b610068610158565b61007061017a565b85816000600481106100855761008461030e565b5b60200201818152505084816001600481106100a3576100a261030e565b5b60200201818152505083816002600481106100c1576100c061030e565b5b60200201818152505082816003600481106100df576100de61030e565b5b602002018181525050600060408360808460066107d05a03fa905080600081146101085761010d565b600080fd5b508061014e576040517f08c379a00000000000000000000000000000000000000000000000000000000081526004016101459061039a565b60405180910390fd5b5050949350505050565b6040518060400160405280600290602082028036833780820191505090505090565b6040518060800160405280600490602082028036833780820191505090505090565b600080fd5b6000819050919050565b6101b4816101a1565b81146101bf57600080fd5b50565b6000813590506101d1816101ab565b92915050565b600080600080608085870312156101f1576101f061019c565b5b60006101ff878288016101c2565b9450506020610210878288016101c2565b9350506040610221878288016101c2565b9250506060610232878288016101c2565b91505092959194509250565b600060029050919050565b600081905092915050565b6000819050919050565b6000819050919050565b6102718161025e565b82525050565b60006102838383610268565b60208301905092915050565b6000602082019050919050565b6102a58161023e565b6102af8184610249565b92506102ba82610254565b8060005b838110156102eb5781516102d28782610277565b96506102dd8361028f565b9250506001810190506102be565b505050505050565b6000604082019050610308600083018461029c565b92915050565b7f4e487b7100000000000000000000000000000000000000000000000000000000600052603260045260246000fd5b600082825260208201905092915050565b7f70616972696e672d6164642d6661696c65640000000000000000000000000000600082015250565b600061038460128361033d565b915061038f8261034e565b602082019050919050565b600060208201905081810360008301526103b381610377565b905091905056fea264697066735822122058f356f347278a2e37fea357c430e9aa4f7d5fffcf877adfd5a038f74821669f64736f6c634300080c0033",
  "immutableReferences": {},
  "source": "// contracts/Ver.sol\n// SPDX-License-Identifier: GPL-3.0\npragma solidity ^0.8.0;\ncontract Test {\n        function callBn256Add(uint256 ax, uint256 ay, uint256 bx, uint256 by) public view returns (bytes32[2] memory result) {\n                uint256[4] memory input;\n                input[0] = ax;\n                input[1] = ay;\n                input[2] = bx;\n                input[3] = by;\n                bool success;\n                // solium-disable-next-line security/no-inline-assembly\n                assembly {\n                        success := staticcall(sub(gas(), 2000), 6, input, 0x80, result, 0x40)\n                        // Use \"invalid\" to make gas estimation work\n                        switch success\n                        case 0 {\n                                revert(0,0)\n                        }\n                }\n                require(success, \"pairing-add-failed\");\n        }\n}\n",
  "sourcePath": "/home/gopath/src/sig_ver/contracts/Test.sol",
  "compiler": {
    "name": "solc",
    "version": "0.8.12+commit.f00d7308.Emscripten.clang"
  },
  "schemaVersion": "3.4.6",
  "updatedAt": "2022-04-28T03:04:02.209Z",
  "networkType": "ethereum",
  "devdoc": {
    "kind": "dev",
    "methods": {},
    "version": 1
  },
  "userdoc": {
    "kind": "user",
    "methods": {},
    "version": 1
  }
}