{
  "contractName": "Time",
  "abi": [
    {
      "inputs": [],
      "name": "ehg2",
      "outputs": [
        {
          "internalType": "bytes",
          "name": "",
          "type": "bytes"
        }
      ],
      "stateMutability": "view",
      "type": "function"
    },
    {
      "inputs": [],
      "name": "ehw",
      "outputs": [
        {
          "internalType": "bytes",
          "name": "",
          "type": "bytes"
        }
      ],
      "stateMutability": "view",
      "type": "function"
    },
    {
      "inputs": [],
      "name": "g1",
      "outputs": [
        {
          "internalType": "bytes",
          "name": "",
          "type": "bytes"
        }
      ],
      "stateMutability": "view",
      "type": "function"
    },
    {
      "inputs": [],
      "name": "g2",
      "outputs": [
        {
          "internalType": "bytes",
          "name": "",
          "type": "bytes"
        }
      ],
      "stateMutability": "view",
      "type": "function"
    },
    {
      "inputs": [],
      "name": "h",
      "outputs": [
        {
          "internalType": "bytes",
          "name": "",
          "type": "bytes"
        }
      ],
      "stateMutability": "view",
      "type": "function"
    },
    {
      "inputs": [],
      "name": "minusEg1g2",
      "outputs": [
        {
          "internalType": "bytes",
          "name": "",
          "type": "bytes"
        }
      ],
      "stateMutability": "view",
      "type": "function"
    },
    {
      "inputs": [],
      "name": "u",
      "outputs": [
        {
          "internalType": "bytes",
          "name": "",
          "type": "bytes"
        }
      ],
      "stateMutability": "view",
      "type": "function"
    },
    {
      "inputs": [],
      "name": "v",
      "outputs": [
        {
          "internalType": "bytes",
          "name": "",
          "type": "bytes"
        }
      ],
      "stateMutability": "view",
      "type": "function"
    },
    {
      "inputs": [],
      "name": "w",
      "outputs": [
        {
          "internalType": "bytes",
          "name": "",
          "type": "bytes"
        }
      ],
      "stateMutability": "view",
      "type": "function"
    },
    {
      "inputs": [
        {
          "internalType": "bytes",
          "name": "_g1",
          "type": "bytes"
        },
        {
          "internalType": "bytes",
          "name": "_h",
          "type": "bytes"
        },
        {
          "internalType": "bytes",
          "name": "_u",
          "type": "bytes"
        },
        {
          "internalType": "bytes",
          "name": "_v",
          "type": "bytes"
        },
        {
          "internalType": "bytes",
          "name": "_g2",
          "type": "bytes"
        },
        {
          "internalType": "bytes",
          "name": "_w",
          "type": "bytes"
        },
        {
          "internalType": "bytes",
          "name": "_ehw",
          "type": "bytes"
        },
        {
          "internalType": "bytes",
          "name": "_ehg2",
          "type": "bytes"
        },
        {
          "internalType": "bytes",
          "name": "_minusEg1g2",
          "type": "bytes"
        }
      ],
      "name": "newGroup",
      "outputs": [],
      "stateMutability": "nonpayable",
      "type": "function"
    },
    {
      "inputs": [],
      "name": "retrieve",
      "outputs": [
        {
          "internalType": "bytes",
          "name": "",
          "type": "bytes"
        }
      ],
      "stateMutability": "view",
      "type": "function"
    },
    {
      "inputs": [
        {
          "internalType": "bytes",
          "name": "combine",
          "type": "bytes"
        }
      ],
      "name": "verify",
      "outputs": [
        {
          "internalType": "bytes32",
          "name": "",
          "type": "bytes32"
        }
      ],
      "stateMutability": "view",
      "type": "function"
    }
  ],
  "bytecode": "0x608060405234801561001057600080fd5b5061118e806100206000396000f3fe608060405234801561001057600080fd5b50600436106100b45760003560e01c80637c2efcba116100715780637c2efcba1461016d5780638e760afe1461018b5780639d20e9b6146101bb578063b8c9d365146101d7578063bdd8a366146101f5578063c6a898c514610213576100b4565b8063177f5f5c146100b9578063205c9cc7146100d757806328e16e76146100f55780632e64cec1146101135780636970a92414610131578063770e539a1461014f575b600080fd5b6100c1610231565b6040516100ce9190610aec565b60405180910390f35b6100df6102bf565b6040516100ec9190610aec565b60405180910390f35b6100fd61034d565b60405161010a9190610aec565b60405180910390f35b61011b6103db565b6040516101289190610aec565b60405180910390f35b6101396104e9565b6040516101469190610aec565b60405180910390f35b610157610577565b6040516101649190610aec565b60405180910390f35b610175610605565b6040516101829190610aec565b60405180910390f35b6101a560048036038101906101a09190610c57565b610693565b6040516101b29190610cb9565b60405180910390f35b6101d560048036038101906101d09190610cd4565b61072c565b005b6101df610806565b6040516101ec9190610aec565b60405180910390f35b6101fd610894565b60405161020a9190610aec565b60405180910390f35b61021b610922565b6040516102289190610aec565b60405180910390f35b6008805461023e90610ec9565b80601f016020809104026020016040519081016040528092919081815260200182805461026a90610ec9565b80156102b75780601f1061028c576101008083540402835291602001916102b7565b820191906000526020600020905b81548152906001019060200180831161029a57829003601f168201915b505050505081565b600580546102cc90610ec9565b80601f01602080910402602001604051908101604052809291908181526020018280546102f890610ec9565b80156103455780601f1061031a57610100808354040283529160200191610345565b820191906000526020600020905b81548152906001019060200180831161032857829003601f168201915b505050505081565b6006805461035a90610ec9565b80601f016020809104026020016040519081016040528092919081815260200182805461038690610ec9565b80156103d35780601f106103a8576101008083540402835291602001916103d3565b820191906000526020600020905b8154815290600101906020018083116103b657829003601f168201915b505050505081565b606080600060016040516020016103f3929190610fc0565b6040516020818303038152906040529050806002604051602001610418929190611024565b604051602081830303815290604052905080600360405160200161043d929190611024565b6040516020818303038152906040529050806004604051602001610462929190611024565b6040516020818303038152906040529050806005604051602001610487929190611024565b60405160208183030381529060405290508060066040516020016104ac929190611024565b60405160208183030381529060405290508060076040516020016104d1929190611024565b60405160208183030381529060405290508091505090565b600480546104f690610ec9565b80601f016020809104026020016040519081016040528092919081815260200182805461052290610ec9565b801561056f5780601f106105445761010080835404028352916020019161056f565b820191906000526020600020905b81548152906001019060200180831161055257829003601f168201915b505050505081565b6007805461058490610ec9565b80601f01602080910402602001604051908101604052809291908181526020018280546105b090610ec9565b80156105fd5780601f106105d2576101008083540402835291602001916105fd565b820191906000526020600020905b8154815290600101906020018083116105e057829003601f168201915b505050505081565b6003805461061290610ec9565b80601f016020809104026020016040519081016040528092919081815260200182805461063e90610ec9565b801561068b5780601f106106605761010080835404028352916020019161068b565b820191906000526020600020905b81548152906001019060200180831161066e57829003601f168201915b505050505081565b6000606060008060016002600360046005600660078b6040516020016106c199989796959493929190611057565b604051602081830303815290604052915060008251905060005b6064811015610720576040516020818460208801600a5afa8060008114610705578251955061070a565b600080fd5b50505080806107189061110f565b9150506106db565b50819350505050919050565b88600090805190602001906107429291906109b0565b5087600190805190602001906107599291906109b0565b5086600290805190602001906107709291906109b0565b5085600390805190602001906107879291906109b0565b50846004908051906020019061079e9291906109b0565b5083600590805190602001906107b59291906109b0565b5082600690805190602001906107cc9291906109b0565b5081600790805190602001906107e39291906109b0565b5080600890805190602001906107fa9291906109b0565b50505050505050505050565b6001805461081390610ec9565b80601f016020809104026020016040519081016040528092919081815260200182805461083f90610ec9565b801561088c5780601f106108615761010080835404028352916020019161088c565b820191906000526020600020905b81548152906001019060200180831161086f57829003601f168201915b505050505081565b600080546108a190610ec9565b80601f01602080910402602001604051908101604052809291908181526020018280546108cd90610ec9565b801561091a5780601f106108ef5761010080835404028352916020019161091a565b820191906000526020600020905b8154815290600101906020018083116108fd57829003601f168201915b505050505081565b6002805461092f90610ec9565b80601f016020809104026020016040519081016040528092919081815260200182805461095b90610ec9565b80156109a85780601f1061097d576101008083540402835291602001916109a8565b820191906000526020600020905b81548152906001019060200180831161098b57829003601f168201915b505050505081565b8280546109bc90610ec9565b90600052602060002090601f0160209004810192826109de5760008555610a25565b82601f106109f757805160ff1916838001178555610a25565b82800160010185558215610a25579182015b82811115610a24578251825591602001919060010190610a09565b5b509050610a329190610a36565b5090565b5b80821115610a4f576000816000905550600101610a37565b5090565b600081519050919050565b600082825260208201905092915050565b60005b83811015610a8d578082015181840152602081019050610a72565b83811115610a9c576000848401525b50505050565b6000601f19601f8301169050919050565b6000610abe82610a53565b610ac88185610a5e565b9350610ad8818560208601610a6f565b610ae181610aa2565b840191505092915050565b60006020820190508181036000830152610b068184610ab3565b905092915050565b6000604051905090565b600080fd5b600080fd5b600080fd5b600080fd5b7f4e487b7100000000000000000000000000000000000000000000000000000000600052604160045260246000fd5b610b6482610aa2565b810181811067ffffffffffffffff82111715610b8357610b82610b2c565b5b80604052505050565b6000610b96610b0e565b9050610ba28282610b5b565b919050565b600067ffffffffffffffff821115610bc257610bc1610b2c565b5b610bcb82610aa2565b9050602081019050919050565b82818337600083830152505050565b6000610bfa610bf584610ba7565b610b8c565b905082815260208101848484011115610c1657610c15610b27565b5b610c21848285610bd8565b509392505050565b600082601f830112610c3e57610c3d610b22565b5b8135610c4e848260208601610be7565b91505092915050565b600060208284031215610c6d57610c6c610b18565b5b600082013567ffffffffffffffff811115610c8b57610c8a610b1d565b5b610c9784828501610c29565b91505092915050565b6000819050919050565b610cb381610ca0565b82525050565b6000602082019050610cce6000830184610caa565b92915050565b60008060008060008060008060006101208a8c031215610cf757610cf6610b18565b5b60008a013567ffffffffffffffff811115610d1557610d14610b1d565b5b610d218c828d01610c29565b99505060208a013567ffffffffffffffff811115610d4257610d41610b1d565b5b610d4e8c828d01610c29565b98505060408a013567ffffffffffffffff811115610d6f57610d6e610b1d565b5b610d7b8c828d01610c29565b97505060608a013567ffffffffffffffff811115610d9c57610d9b610b1d565b5b610da88c828d01610c29565b96505060808a013567ffffffffffffffff811115610dc957610dc8610b1d565b5b610dd58c828d01610c29565b95505060a08a013567ffffffffffffffff811115610df657610df5610b1d565b5b610e028c828d01610c29565b94505060c08a013567ffffffffffffffff811115610e2357610e22610b1d565b5b610e2f8c828d01610c29565b93505060e08a013567ffffffffffffffff811115610e5057610e4f610b1d565b5b610e5c8c828d01610c29565b9250506101008a013567ffffffffffffffff811115610e7e57610e7d610b1d565b5b610e8a8c828d01610c29565b9150509295985092959850929598565b7f4e487b7100000000000000000000000000000000000000000000000000000000600052602260045260246000fd5b60006002820490506001821680610ee157607f821691505b60208210811415610ef557610ef4610e9a565b5b50919050565b600081905092915050565b60008190508160005260206000209050919050565b60008154610f2881610ec9565b610f328186610efb565b94506001821660008114610f4d5760018114610f5e57610f91565b60ff19831686528186019350610f91565b610f6785610f06565b60005b83811015610f8957815481890152600182019150602081019050610f6a565b838801955050505b50505092915050565b7f2000000000000000000000000000000000000000000000000000000000000000815250565b6000610fcc8285610f1b565b9150610fd782610f9a565b600182019150610fe78284610f1b565b91508190509392505050565b6000610ffe82610a53565b6110088185610efb565b9350611018818560208601610a6f565b80840191505092915050565b60006110308285610ff3565b915061103b82610f9a565b60018201915061104b8284610f1b565b91508190509392505050565b6000611063828c610f1b565b915061106f828b610f1b565b915061107b828a610f1b565b91506110878289610f1b565b91506110938288610f1b565b915061109f8287610f1b565b91506110ab8286610f1b565b91506110b78285610f1b565b91506110c38284610ff3565b91508190509a9950505050505050505050565b7f4e487b7100000000000000000000000000000000000000000000000000000000600052601160045260246000fd5b6000819050919050565b600061111a82611105565b91507fffffffffffffffffffffffffffffffffffffffffffffffffffffffffffffffff82141561114d5761114c6110d6565b5b60018201905091905056fea2646970667358221220f316acb73125d4c9690d84b4bab50b03f9b11ab2593d38921ae0013812dbee3e64736f6c634300080c0033",
  "immutableReferences": {},
  "source": "// contracts/Time.sol\n// SPDX-License-Identifier: GPL-3.0\npragma solidity ^0.8.0;\ncontract Time {\n    bytes public g1;\n    bytes public h;\n    bytes public u;\n    bytes public v;\n    bytes public g2;\n    bytes public w;\n    bytes public ehw;\n    bytes public ehg2;\n    bytes public minusEg1g2;\n\n    function newGroup(bytes memory _g1, bytes memory _h, bytes memory _u, bytes memory _v, bytes memory _g2, \n    bytes memory _w, bytes memory _ehw, bytes memory _ehg2, bytes memory _minusEg1g2) public {\n        g1 = _g1;\n        h = _h;\n        u = _u;\n        v = _v;\n        g2 = _g2;\n        w = _w;\n        ehw = _ehw;\n        ehg2 = _ehg2;\n        minusEg1g2 = _minusEg1g2;\n    }\n\n    function retrieve() public view returns(bytes memory){\n        bytes memory output;\n//        output = abi.encodePacked(g1, h, u, v, g2, w, ehw, ehg2);\n        output = bytes.concat(g1, \" \", h);\n        output = bytes.concat(output, \" \", u);\n        output = bytes.concat(output, \" \", v);\n        output = bytes.concat(output, \" \", g2);\n        output = bytes.concat(output, \" \", w);\n        output = bytes.concat(output, \" \", ehw);\n        output = bytes.concat(output, \" \", ehg2);\n\treturn output;\n    }\n\n    function verify(bytes memory combine) public view returns (bytes32) {\n        bytes memory input;\n        bytes32 output;\n        // input = bytes.concat(g1, \" \", h);\n        // input = bytes.concat(input, \" \", u);\n        // input = bytes.concat(input, \" \", v);\n        // input = bytes.concat(input, \" \", g2);\n        // input = bytes.concat(input, \" \", w);\n        // input = bytes.concat(input, \" \", ehw);\n        // input = bytes.concat(input, \" \", ehg2);\n        // input = bytes.concat(input, \" \", combine);\n        input = abi.encodePacked(g1, h, u, v, g2, w, ehw, ehg2, combine);\n\tuint256 len = input.length;\n\tfor (uint i = 0; i < 100; i++){\n        assembly {\n            let out := mload(0x40)\n            let success:=staticcall(gas(), 10, add(input,0x20), len, out, 0x20)\n            switch success\n            case 0 {\n                revert(0,0)\n            } default {\n                output := mload(out)\n            }\n        }\n\t}\n        return output;\n    }\n}\n",
  "sourcePath": "/home/gopath/src/sig_ver/contracts/Time.sol",
  "compiler": {
    "name": "solc",
    "version": "0.8.12+commit.f00d7308.Emscripten.clang"
  },
  "schemaVersion": "3.4.6",
  "updatedAt": "2022-04-28T06:14:47.120Z",
  "devdoc": {
    "kind": "dev",
    "methods": {},
    "version": 1
  },
  "userdoc": {
    "kind": "user",
    "methods": {},
    "version": 1
  }
}