{
  "contractName": "Ver",
  "abi": [
    {
      "inputs": [],
      "name": "callBn256Add",
      "outputs": [
        {
          "internalType": "bytes32",
          "name": "result",
          "type": "bytes32"
        }
      ],
      "stateMutability": "view",
      "type": "function",
      "constant": true
    },
    {
      "inputs": [
        {
          "internalType": "bytes",
          "name": "data",
          "type": "bytes"
        }
      ],
      "name": "callDatacopy",
      "outputs": [
        {
          "internalType": "bytes",
          "name": "",
          "type": "bytes"
        }
      ],
      "stateMutability": "view",
      "type": "function",
      "constant": true
    },
    {
      "inputs": [],
      "name": "callDatacopy",
      "outputs": [
        {
          "internalType": "bytes",
          "name": "",
          "type": "bytes"
        }
      ],
      "stateMutability": "nonpayable",
      "type": "function"
    },
    {
      "inputs": [],
      "name": "callBlake2F",
      "outputs": [
        {
          "internalType": "bytes32[2]",
          "name": "",
          "type": "bytes32[2]"
        }
      ],
      "stateMutability": "view",
      "type": "function",
      "constant": true
    }
  ],
  "bytecode": "0x608060405234801561001057600080fd5b50610bea806100206000396000f3fe608060405234801561001057600080fd5b506004361061004c5760003560e01c806341f32a3a14610051578063caa260321461006f578063e60c01831461009f578063efaddba2146100bd575b600080fd5b6100596100db565b60405161006691906106ba565b60405180910390f35b6100896004803603810190610084919061082f565b61040e565b6040516100969190610900565b60405180910390f35b6100a7610482565b6040516100b49190610931565b60405180910390f35b6100c56104f0565b6040516100d29190610900565b60405180910390f35b6100e361059f565b6100eb61059f565b6000600c90506100f961059f565b7f48c9bdf267e6096a3ba7ca8485ae67bb2bf894fe72f36e3cf1361d5f3af54fa58160006002811061012e5761012d61094c565b5b6020020181815250507fd182e6ad7f520e511f6c3e2b8c68059b6bbd41fbabd9831f79217e1319cde05b8160016002811061016c5761016b61094c565b5b60200201818152505061017d6105c1565b7f6162630000000000000000000000000000000000000000000000000000000000816000600481106101b2576101b161094c565b5b6020020181815250506000816001600481106101d1576101d061094c565b5b6020020181815250506000816002600481106101f0576101ef61094c565b5b60200201818152505060008160036004811061020f5761020e61094c565b5b6020020181815250506102206105e3565b7f0300000000000000000000000000000000000000000000000000000000000000816000600281106102555761025461094c565b5b602002019077ffffffffffffffffffffffffffffffffffffffffffffffff1916908177ffffffffffffffffffffffffffffffffffffffffffffffff1916815250506000816001600281106102ac576102ab61094c565b5b602002019077ffffffffffffffffffffffffffffffffffffffffffffffff1916908177ffffffffffffffffffffffffffffffffffffffffffffffff1916815250506000600190506000858560006002811061030a5761030961094c565b5b6020020151866001600281106103235761032261094c565b5b60200201518660006004811061033c5761033b61094c565b5b6020020151876001600481106103555761035461094c565b5b60200201518860026004811061036e5761036d61094c565b5b6020020151896003600481106103875761038661094c565b5b6020020151896000600281106103a05761039f61094c565b5b60200201518a6001600281106103b9576103b861094c565b5b60200201518a6040516020016103d89a99989796959493929190610a83565b604051602081830303815290604052905060408760d5602084016009600019fa61040157600080fd5b8697505050505050505090565b60606000825167ffffffffffffffff81111561042d5761042c610704565b5b6040519080825280601f01601f19166020018201604052801561045f5781602001600182028036833780820191505090505b509050825180602083018260208701600a5afa61047857fe5b5080915050919050565b60008060029050600060208360208460025afa905080600081146104a5576104aa565b600080fd5b50806104eb576040517f08c379a00000000000000000000000000000000000000000000000000000000081526004016104e290610b94565b60405180910390fd5b505090565b606060006040518060400160405280600281526020017f222200000000000000000000000000000000000000000000000000000000000081525090506000815167ffffffffffffffff81111561054957610548610704565b5b6040519080825280601f01601f19166020018201604052801561057b5781602001600182028036833780820191505090505b5090508151806020830182602086016000600a5af161059657fe5b50809250505090565b6040518060400160405280600290602082028036833780820191505090505090565b6040518060800160405280600490602082028036833780820191505090505090565b6040518060400160405280600290602082028036833780820191505090505090565b600060029050919050565b600081905092915050565b6000819050919050565b6000819050919050565b61063881610625565b82525050565b600061064a838361062f565b60208301905092915050565b6000602082019050919050565b61066c81610605565b6106768184610610565b92506106818261061b565b8060005b838110156106b2578151610699878261063e565b96506106a483610656565b925050600181019050610685565b505050505050565b60006040820190506106cf6000830184610663565b92915050565b6000604051905090565b600080fd5b600080fd5b600080fd5b600080fd5b6000601f19601f8301169050919050565b7f4e487b7100000000000000000000000000000000000000000000000000000000600052604160045260246000fd5b61073c826106f3565b810181811067ffffffffffffffff8211171561075b5761075a610704565b5b80604052505050565b600061076e6106d5565b905061077a8282610733565b919050565b600067ffffffffffffffff82111561079a57610799610704565b5b6107a3826106f3565b9050602081019050919050565b82818337600083830152505050565b60006107d26107cd8461077f565b610764565b9050828152602081018484840111156107ee576107ed6106ee565b5b6107f98482856107b0565b509392505050565b600082601f830112610816576108156106e9565b5b81356108268482602086016107bf565b91505092915050565b600060208284031215610845576108446106df565b5b600082013567ffffffffffffffff811115610863576108626106e4565b5b61086f84828501610801565b91505092915050565b600081519050919050565b600082825260208201905092915050565b60005b838110156108b2578082015181840152602081019050610897565b838111156108c1576000848401525b50505050565b60006108d282610878565b6108dc8185610883565b93506108ec818560208601610894565b6108f5816106f3565b840191505092915050565b6000602082019050818103600083015261091a81846108c7565b905092915050565b61092b81610625565b82525050565b60006020820190506109466000830184610922565b92915050565b7f4e487b7100000000000000000000000000000000000000000000000000000000600052603260045260246000fd5b600063ffffffff82169050919050565b60008160e01b9050919050565b60006109a38261098b565b9050919050565b6109bb6109b68261097b565b610998565b82525050565b6000819050919050565b6109dc6109d782610625565b6109c1565b82525050565b60007fffffffffffffffff00000000000000000000000000000000000000000000000082169050919050565b6000819050919050565b610a29610a24826109e2565b610a0e565b82525050565b60008115159050919050565b60008160f81b9050919050565b6000610a5382610a3b565b9050919050565b6000610a6582610a48565b9050919050565b610a7d610a7882610a2f565b610a5a565b82525050565b6000610a8f828d6109aa565b600482019150610a9f828c6109cb565b602082019150610aaf828b6109cb565b602082019150610abf828a6109cb565b602082019150610acf82896109cb565b602082019150610adf82886109cb565b602082019150610aef82876109cb565b602082019150610aff8286610a18565b600882019150610b0f8285610a18565b600882019150610b1f8284610a6c565b6001820191508190509b9a5050505050505050505050565b600082825260208201905092915050565b7f70616972696e672d6164642d6661696c65640000000000000000000000000000600082015250565b6000610b7e601283610b37565b9150610b8982610b48565b602082019050919050565b60006020820190508181036000830152610bad81610b71565b905091905056fea2646970667358221220898070716bde96ecac465e26c54796374960c19aec8e66b50bc5ad51e209f8a364736f6c634300080c0033",
  "immutableReferences": {},
  "source": "// contracts/Ver.sol\n// SPDX-License-Identifier: MIT\npragma solidity ^0.8.0;\n\ncontract Ver{\n    function callBn256Add() public view returns (bytes32 result) {\n        bytes32 input = hex\"0000000000000000000000000000000000000000000000000000000000000002\";\n\t//result = hex\"0000000000000000000000000000000000000000000000000000000000000001\";\n\t//bytes32[26] memory input;\n\t//bytes32 temp = 0x111122223333444455556666777788889999AAAABBBBCCCCDDDDEEEEFFFFCCCC;\t\n\t//uint32 i = 0;\n        //for (i = 0; i < 26; i++){\n\t//\tinput[i] = temp;\n\t//}\n\tbool success;\n        assembly {\n            success := staticcall(gas(), 0x02, input, 0x20, result, 0x20)\n            switch success\n                case 0 {\n                    revert(0,0)\n                }\n        }\n\trequire(success, \"pairing-add-failed\");\n    }\nfunction callDatacopy(bytes memory data) public view returns (bytes memory) {\n    bytes memory ret = new bytes(data.length);\n    assembly {\n        let len := mload(data)\n        if iszero(staticcall(gas(), 10, add(data, 0x20), len, add(ret,0x20), len)) {\n            invalid()\n        }\n    }\n\n    return ret;\n}\nfunction callDatacopy() public returns (bytes memory) {\n        bytes memory input = hex\"2222\";\n        bytes memory ret = new bytes(input.length);\n        assembly {\n                let len := mload(input)\n                if iszero(call(gas(), 10, 0, add(input, 0x20), len, add(ret,0x20), len)) {\n                invalid()\n                }\n        }\n        return ret;\n        }    \n        function callBlake2F() public view returns (bytes32[2] memory) {\n                bytes32[2] memory output;\n\t\t\n\t\tuint32 rounds = 12;\n\n  bytes32[2] memory h;\n  h[0] = hex\"48c9bdf267e6096a3ba7ca8485ae67bb2bf894fe72f36e3cf1361d5f3af54fa5\";\n  h[1] = hex\"d182e6ad7f520e511f6c3e2b8c68059b6bbd41fbabd9831f79217e1319cde05b\";\n\n  bytes32[4] memory m;\n  m[0] = hex\"6162630000000000000000000000000000000000000000000000000000000000\";\n  m[1] = hex\"0000000000000000000000000000000000000000000000000000000000000000\";\n  m[2] = hex\"0000000000000000000000000000000000000000000000000000000000000000\";\n  m[3] = hex\"0000000000000000000000000000000000000000000000000000000000000000\";\n\n  bytes8[2] memory t;\n  t[0] = hex\"03000000\";\n  t[1] = hex\"00000000\";\n\n  bool f = true;\n\n                bytes memory args = abi.encodePacked(rounds, h[0], h[1], m[0], m[1], m[2], m[3], t[0], t[1], f);\n\n                assembly {\n                        if iszero(staticcall(not(0), 0x09, add(args, 32), 0xd5, output, 0x40)) {\n                        revert(0, 0)\n                        }\n                }\n\n                return output;\n        }\n}\n\n",
  "sourcePath": "/home/gopath/src/sig_ver/contracts/Ver.sol",
  "compiler": {
    "name": "solc",
    "version": "0.8.12+commit.f00d7308.Emscripten.clang"
  },
  "schemaVersion": "3.4.6",
  "updatedAt": "2022-04-28T03:04:04.557Z",
  "networkType": "ethereum",
  "devdoc": {
    "kind": "dev",
    "methods": {},
    "version": 1
  },
  "userdoc": {
    "kind": "user",
    "methods": {},
    "version": 1
  }
}