{
  "contractName": "Verify",
  "abi": [
    {
      "inputs": [],
      "name": "ehg2",
      "outputs": [
        {
          "internalType": "bytes",
          "name": "",
          "type": "bytes"
        }
      ],
      "stateMutability": "view",
      "type": "function"
    },
    {
      "inputs": [],
      "name": "ehw",
      "outputs": [
        {
          "internalType": "bytes",
          "name": "",
          "type": "bytes"
        }
      ],
      "stateMutability": "view",
      "type": "function"
    },
    {
      "inputs": [],
      "name": "g1",
      "outputs": [
        {
          "internalType": "bytes",
          "name": "",
          "type": "bytes"
        }
      ],
      "stateMutability": "view",
      "type": "function"
    },
    {
      "inputs": [],
      "name": "g2",
      "outputs": [
        {
          "internalType": "bytes",
          "name": "",
          "type": "bytes"
        }
      ],
      "stateMutability": "view",
      "type": "function"
    },
    {
      "inputs": [],
      "name": "h",
      "outputs": [
        {
          "internalType": "bytes",
          "name": "",
          "type": "bytes"
        }
      ],
      "stateMutability": "view",
      "type": "function"
    },
    {
      "inputs": [],
      "name": "minusEg1g2",
      "outputs": [
        {
          "internalType": "bytes",
          "name": "",
          "type": "bytes"
        }
      ],
      "stateMutability": "view",
      "type": "function"
    },
    {
      "inputs": [],
      "name": "u",
      "outputs": [
        {
          "internalType": "bytes",
          "name": "",
          "type": "bytes"
        }
      ],
      "stateMutability": "view",
      "type": "function"
    },
    {
      "inputs": [],
      "name": "v",
      "outputs": [
        {
          "internalType": "bytes",
          "name": "",
          "type": "bytes"
        }
      ],
      "stateMutability": "view",
      "type": "function"
    },
    {
      "inputs": [],
      "name": "w",
      "outputs": [
        {
          "internalType": "bytes",
          "name": "",
          "type": "bytes"
        }
      ],
      "stateMutability": "view",
      "type": "function"
    },
    {
      "inputs": [
        {
          "internalType": "bytes",
          "name": "_g1",
          "type": "bytes"
        },
        {
          "internalType": "bytes",
          "name": "_h",
          "type": "bytes"
        },
        {
          "internalType": "bytes",
          "name": "_u",
          "type": "bytes"
        },
        {
          "internalType": "bytes",
          "name": "_v",
          "type": "bytes"
        },
        {
          "internalType": "bytes",
          "name": "_g2",
          "type": "bytes"
        },
        {
          "internalType": "bytes",
          "name": "_w",
          "type": "bytes"
        },
        {
          "internalType": "bytes",
          "name": "_ehw",
          "type": "bytes"
        },
        {
          "internalType": "bytes",
          "name": "_ehg2",
          "type": "bytes"
        },
        {
          "internalType": "bytes",
          "name": "_minusEg1g2",
          "type": "bytes"
        }
      ],
      "name": "newGroup",
      "outputs": [],
      "stateMutability": "nonpayable",
      "type": "function"
    },
    {
      "inputs": [],
      "name": "retrieve",
      "outputs": [
        {
          "internalType": "bytes",
          "name": "",
          "type": "bytes"
        }
      ],
      "stateMutability": "view",
      "type": "function"
    },
    {
      "inputs": [
        {
          "internalType": "bytes",
          "name": "combine",
          "type": "bytes"
        }
      ],
      "name": "verify",
      "outputs": [
        {
          "internalType": "bytes32",
          "name": "",
          "type": "bytes32"
        }
      ],
      "stateMutability": "view",
      "type": "function"
    }
  ],
  "bytecode": "0x608060405234801561001057600080fd5b506110ec806100206000396000f3fe608060405234801561001057600080fd5b50600436106100b45760003560e01c80637c2efcba116100715780637c2efcba1461016d5780638e760afe1461018b5780639d20e9b6146101bb578063b8c9d365146101d7578063bdd8a366146101f5578063c6a898c514610213576100b4565b8063177f5f5c146100b9578063205c9cc7146100d757806328e16e76146100f55780632e64cec1146101135780636970a92414610131578063770e539a1461014f575b600080fd5b6100c1610231565b6040516100ce9190610acc565b60405180910390f35b6100df6102bf565b6040516100ec9190610acc565b60405180910390f35b6100fd61034d565b60405161010a9190610acc565b60405180910390f35b61011b6103db565b6040516101289190610acc565b60405180910390f35b6101396104e9565b6040516101469190610acc565b60405180910390f35b610157610577565b6040516101649190610acc565b60405180910390f35b610175610605565b6040516101829190610acc565b60405180910390f35b6101a560048036038101906101a09190610c37565b610693565b6040516101b29190610c99565b60405180910390f35b6101d560048036038101906101d09190610cb4565b61070c565b005b6101df6107e6565b6040516101ec9190610acc565b60405180910390f35b6101fd610874565b60405161020a9190610acc565b60405180910390f35b61021b610902565b6040516102289190610acc565b60405180910390f35b6008805461023e90610ea9565b80601f016020809104026020016040519081016040528092919081815260200182805461026a90610ea9565b80156102b75780601f1061028c576101008083540402835291602001916102b7565b820191906000526020600020905b81548152906001019060200180831161029a57829003601f168201915b505050505081565b600580546102cc90610ea9565b80601f01602080910402602001604051908101604052809291908181526020018280546102f890610ea9565b80156103455780601f1061031a57610100808354040283529160200191610345565b820191906000526020600020905b81548152906001019060200180831161032857829003601f168201915b505050505081565b6006805461035a90610ea9565b80601f016020809104026020016040519081016040528092919081815260200182805461038690610ea9565b80156103d35780601f106103a8576101008083540402835291602001916103d3565b820191906000526020600020905b8154815290600101906020018083116103b657829003601f168201915b505050505081565b606080600060016040516020016103f3929190610fa0565b6040516020818303038152906040529050806002604051602001610418929190611004565b604051602081830303815290604052905080600360405160200161043d929190611004565b6040516020818303038152906040529050806004604051602001610462929190611004565b6040516020818303038152906040529050806005604051602001610487929190611004565b60405160208183030381529060405290508060066040516020016104ac929190611004565b60405160208183030381529060405290508060076040516020016104d1929190611004565b60405160208183030381529060405290508091505090565b600480546104f690610ea9565b80601f016020809104026020016040519081016040528092919081815260200182805461052290610ea9565b801561056f5780601f106105445761010080835404028352916020019161056f565b820191906000526020600020905b81548152906001019060200180831161055257829003601f168201915b505050505081565b6007805461058490610ea9565b80601f01602080910402602001604051908101604052809291908181526020018280546105b090610ea9565b80156105fd5780601f106105d2576101008083540402835291602001916105fd565b820191906000526020600020905b8154815290600101906020018083116105e057829003601f168201915b505050505081565b6003805461061290610ea9565b80601f016020809104026020016040519081016040528092919081815260200182805461063e90610ea9565b801561068b5780601f106106605761010080835404028352916020019161068b565b820191906000526020600020905b81548152906001019060200180831161066e57829003601f168201915b505050505081565b6000606060008060016002600360046005600660078b6040516020016106c199989796959493929190611037565b60405160208183030381529060405291506000825190506040516020818360208701600a5afa80600081146106f957825194506106fe565b600080fd5b505050819350505050919050565b8860009080519060200190610722929190610990565b508760019080519060200190610739929190610990565b508660029080519060200190610750929190610990565b508560039080519060200190610767929190610990565b50846004908051906020019061077e929190610990565b508360059080519060200190610795929190610990565b5082600690805190602001906107ac929190610990565b5081600790805190602001906107c3929190610990565b5080600890805190602001906107da929190610990565b50505050505050505050565b600180546107f390610ea9565b80601f016020809104026020016040519081016040528092919081815260200182805461081f90610ea9565b801561086c5780601f106108415761010080835404028352916020019161086c565b820191906000526020600020905b81548152906001019060200180831161084f57829003601f168201915b505050505081565b6000805461088190610ea9565b80601f01602080910402602001604051908101604052809291908181526020018280546108ad90610ea9565b80156108fa5780601f106108cf576101008083540402835291602001916108fa565b820191906000526020600020905b8154815290600101906020018083116108dd57829003601f168201915b505050505081565b6002805461090f90610ea9565b80601f016020809104026020016040519081016040528092919081815260200182805461093b90610ea9565b80156109885780601f1061095d57610100808354040283529160200191610988565b820191906000526020600020905b81548152906001019060200180831161096b57829003601f168201915b505050505081565b82805461099c90610ea9565b90600052602060002090601f0160209004810192826109be5760008555610a05565b82601f106109d757805160ff1916838001178555610a05565b82800160010185558215610a05579182015b82811115610a045782518255916020019190600101906109e9565b5b509050610a129190610a16565b5090565b5b80821115610a2f576000816000905550600101610a17565b5090565b600081519050919050565b600082825260208201905092915050565b60005b83811015610a6d578082015181840152602081019050610a52565b83811115610a7c576000848401525b50505050565b6000601f19601f8301169050919050565b6000610a9e82610a33565b610aa88185610a3e565b9350610ab8818560208601610a4f565b610ac181610a82565b840191505092915050565b60006020820190508181036000830152610ae68184610a93565b905092915050565b6000604051905090565b600080fd5b600080fd5b600080fd5b600080fd5b7f4e487b7100000000000000000000000000000000000000000000000000000000600052604160045260246000fd5b610b4482610a82565b810181811067ffffffffffffffff82111715610b6357610b62610b0c565b5b80604052505050565b6000610b76610aee565b9050610b828282610b3b565b919050565b600067ffffffffffffffff821115610ba257610ba1610b0c565b5b610bab82610a82565b9050602081019050919050565b82818337600083830152505050565b6000610bda610bd584610b87565b610b6c565b905082815260208101848484011115610bf657610bf5610b07565b5b610c01848285610bb8565b509392505050565b600082601f830112610c1e57610c1d610b02565b5b8135610c2e848260208601610bc7565b91505092915050565b600060208284031215610c4d57610c4c610af8565b5b600082013567ffffffffffffffff811115610c6b57610c6a610afd565b5b610c7784828501610c09565b91505092915050565b6000819050919050565b610c9381610c80565b82525050565b6000602082019050610cae6000830184610c8a565b92915050565b60008060008060008060008060006101208a8c031215610cd757610cd6610af8565b5b60008a013567ffffffffffffffff811115610cf557610cf4610afd565b5b610d018c828d01610c09565b99505060208a013567ffffffffffffffff811115610d2257610d21610afd565b5b610d2e8c828d01610c09565b98505060408a013567ffffffffffffffff811115610d4f57610d4e610afd565b5b610d5b8c828d01610c09565b97505060608a013567ffffffffffffffff811115610d7c57610d7b610afd565b5b610d888c828d01610c09565b96505060808a013567ffffffffffffffff811115610da957610da8610afd565b5b610db58c828d01610c09565b95505060a08a013567ffffffffffffffff811115610dd657610dd5610afd565b5b610de28c828d01610c09565b94505060c08a013567ffffffffffffffff811115610e0357610e02610afd565b5b610e0f8c828d01610c09565b93505060e08a013567ffffffffffffffff811115610e3057610e2f610afd565b5b610e3c8c828d01610c09565b9250506101008a013567ffffffffffffffff811115610e5e57610e5d610afd565b5b610e6a8c828d01610c09565b9150509295985092959850929598565b7f4e487b7100000000000000000000000000000000000000000000000000000000600052602260045260246000fd5b60006002820490506001821680610ec157607f821691505b60208210811415610ed557610ed4610e7a565b5b50919050565b600081905092915050565b60008190508160005260206000209050919050565b60008154610f0881610ea9565b610f128186610edb565b94506001821660008114610f2d5760018114610f3e57610f71565b60ff19831686528186019350610f71565b610f4785610ee6565b60005b83811015610f6957815481890152600182019150602081019050610f4a565b838801955050505b50505092915050565b7f2000000000000000000000000000000000000000000000000000000000000000815250565b6000610fac8285610efb565b9150610fb782610f7a565b600182019150610fc78284610efb565b91508190509392505050565b6000610fde82610a33565b610fe88185610edb565b9350610ff8818560208601610a4f565b80840191505092915050565b60006110108285610fd3565b915061101b82610f7a565b60018201915061102b8284610efb565b91508190509392505050565b6000611043828c610efb565b915061104f828b610efb565b915061105b828a610efb565b91506110678289610efb565b91506110738288610efb565b915061107f8287610efb565b915061108b8286610efb565b91506110978285610efb565b91506110a38284610fd3565b91508190509a995050505050505050505056fea2646970667358221220a8f9d736243459fbe3e41f843bfa38bdd0dfabab08f9c87c4bda142f36351ef364736f6c634300080c0033",
  "immutableReferences": {},
  "source": "// contracts/Verify.sol\n// SPDX-License-Identifier: GPL-3.0\npragma solidity ^0.8.0;\ncontract Verify {\n    bytes public g1;\n    bytes public h;\n    bytes public u;\n    bytes public v;\n    bytes public g2;\n    bytes public w;\n    bytes public ehw;\n    bytes public ehg2;\n    bytes public minusEg1g2;\n\n    function newGroup(bytes memory _g1, bytes memory _h, bytes memory _u, bytes memory _v, bytes memory _g2, \n    bytes memory _w, bytes memory _ehw, bytes memory _ehg2, bytes memory _minusEg1g2) public {\n        g1 = _g1;\n        h = _h;\n        u = _u;\n        v = _v;\n        g2 = _g2;\n        w = _w;\n        ehw = _ehw;\n        ehg2 = _ehg2;\n        minusEg1g2 = _minusEg1g2;\n    }\n\n    function retrieve() public view returns(bytes memory){\n        bytes memory output;\n//        output = abi.encodePacked(g1, h, u, v, g2, w, ehw, ehg2);\n        output = bytes.concat(g1, \" \", h);\n        output = bytes.concat(output, \" \", u);\n        output = bytes.concat(output, \" \", v);\n        output = bytes.concat(output, \" \", g2);\n        output = bytes.concat(output, \" \", w);\n        output = bytes.concat(output, \" \", ehw);\n        output = bytes.concat(output, \" \", ehg2);\n\treturn output;\n    }\n\n    function verify(bytes memory combine) public view returns (bytes32) {\n        bytes memory input;\n        bytes32 output;\n        // input = bytes.concat(g1, \" \", h);\n        // input = bytes.concat(input, \" \", u);\n        // input = bytes.concat(input, \" \", v);\n        // input = bytes.concat(input, \" \", g2);\n        // input = bytes.concat(input, \" \", w);\n        // input = bytes.concat(input, \" \", ehw);\n        // input = bytes.concat(input, \" \", ehg2);\n        // input = bytes.concat(input, \" \", combine);\n        input = abi.encodePacked(g1, h, u, v, g2, w, ehw, ehg2, combine);\n\tuint256 len = input.length;\n        assembly {\n            let out := mload(0x40)\n            let success:=staticcall(gas(), 10, add(input,0x20), len, out, 0x20)\n            switch success\n            case 0 {\n                revert(0,0)\n            } default {\n                output := mload(out)\n            }\n        }\n        return output;\n    }\n}\n",
  "sourcePath": "/home/gopath/src/sig_ver/contracts/Verify.sol",
  "compiler": {
    "name": "solc",
    "version": "0.8.12+commit.f00d7308.Emscripten.clang"
  },
  "schemaVersion": "3.4.6",
  "updatedAt": "2022-04-28T06:14:47.127Z",
  "devdoc": {
    "kind": "dev",
    "methods": {},
    "version": 1
  },
  "userdoc": {
    "kind": "user",
    "methods": {},
    "version": 1
  }
}